HEBV03J201203310005      BGAA17033200                                          
HEH8030482940NN19600527 EDT2P1 HCPP      110020110907     3821                 
HETK028A  0062750120110907616                                                  
HETC003A  0077200120110907780                                                  
HEH5504423178  19811020 EDT2P2 HCPP      110020110907     3821                 
HETA007A  0032350120110907706                                                  
HETC003A  0077200120110907780                                                  
HEH3779764905  19360527 EDT2P3 HCPP      110020110907     3821                 
HETK028A  0062750120110907099                                                  
HETC003A  0077200120110907780                                                  
HEH1936104668DG19490416 EDT2P4 HCPP      110020110909     3821                 
HETE430A  0011150120110909709                                                  
HETA007A  0034700120110909709                                                  
HETC003A  0077200120110909780                                                  
HETK028A  0062750120110909709                                                  
HETG394A  0006750120110909709                                                  
HEH1880870926AL20041116 EDT2P5 HCPP      110020110921     3821                 
HETA007A  0034700120110921917                                                  
HETK028A  0062750120110921917                                                  
HETE430A  0011150120110921917                                                  
HETC003A  0077200120110921917                                                  
HETG394A  0006750120110921917                                                  
HEH1839882220  19931112 EDT2P6 HCPP                       3821                 
HETG394A  0006750120120205304                                                  
HETA007A  0034700120120205304                                                  
HEH1529932244FH19970806 EDT2P7 HCPP      110020111005     3821                 
HETC003A  0077200120120105300                                                  
HETA007A  0034700120120105300                                                  
HETG394A  0006750120120105300                                                  
HEH1600719627JA19301209 EDT2P8 HCPP      110020111005     3821                 
HETA007A  0034700120120205616                                                  
HETE430A  0011550120120205616                                                  
HETK028A  0062750120120205616                                                  
HETG394A  0006750120120205616                                                  
HETC003A  0077200120110205616                                                  
HEH16832889871219300813 EDT2P9 HCPP                       3821                 
HETA007A  0034700120120206628                                                  
HEE0009000000027                                                               
