HEBV03E202401010019000000000080128456                                          
HEH9719558729FE2014021411100055HCPP                                            
HETV404A  0051000120231223367                                                  
HEH9177931004AL2012092111100056HCPP                                            
HETV404A  0051000120231223367                                                  
HEH7343379561WR2017071211100057HCPP                                            
HETV404A  0051000120231223367                                                  
HEH7304614527KE2014071511100058HCPP                                            
HETV404A  0051000120231223367                                                  
HEH7281394689HG2008010711100059HCPP                                            
HETV404A  0051000120231223367                                                  
HEH2722460108NL2011021011100060HCPP                                            
HETV404A  0051000120231223367                                                  
HEE0006000000006                                                               
